{
  "_format": "hh-sol-artifact-1",
  "contractName": "OracleData",
  "sourceName": "contracts/OracleData.sol",
  "abi": [
    {
      "inputs": [
        {
          "internalType": "uint256",
          "name": "eth",
          "type": "uint256"
        },
        {
          "internalType": "uint256",
          "name": "btc",
          "type": "uint256"
        },
        {
          "internalType": "uint256",
          "name": "matic",
          "type": "uint256"
        },
        {
          "internalType": "uint256",
          "name": "op",
          "type": "uint256"
        },
        {
          "internalType": "uint256",
          "name": "sol",
          "type": "uint256"
        },
        {
          "internalType": "uint256",
          "name": "yfi",
          "type": "uint256"
        },
        {
          "internalType": "uint256",
          "name": "link",
          "type": "uint256"
        }
      ],
      "name": "addCryptoData",
      "outputs": [],
      "stateMutability": "nonpayable",
      "type": "function"
    },
    {
      "inputs": [
        {
          "internalType": "uint256",
          "name": "",
          "type": "uint256"
        }
      ],
      "name": "cryptoDataArray",
      "outputs": [
        {
          "internalType": "uint256",
          "name": "ethPrice",
          "type": "uint256"
        },
        {
          "internalType": "uint256",
          "name": "btcPrice",
          "type": "uint256"
        },
        {
          "internalType": "uint256",
          "name": "maticPrice",
          "type": "uint256"
        },
        {
          "internalType": "uint256",
          "name": "opPrice",
          "type": "uint256"
        },
        {
          "internalType": "uint256",
          "name": "solPrice",
          "type": "uint256"
        },
        {
          "internalType": "uint256",
          "name": "yfiPrice",
          "type": "uint256"
        },
        {
          "internalType": "uint256",
          "name": "linkPrice",
          "type": "uint256"
        }
      ],
      "stateMutability": "view",
      "type": "function"
    },
    {
      "inputs": [
        {
          "internalType": "uint256",
          "name": "index",
          "type": "uint256"
        }
      ],
      "name": "getCryptoData",
      "outputs": [
        {
          "internalType": "uint256",
          "name": "ethPrice",
          "type": "uint256"
        },
        {
          "internalType": "uint256",
          "name": "btcPrice",
          "type": "uint256"
        },
        {
          "internalType": "uint256",
          "name": "maticPrice",
          "type": "uint256"
        },
        {
          "internalType": "uint256",
          "name": "opPrice",
          "type": "uint256"
        },
        {
          "internalType": "uint256",
          "name": "solPrice",
          "type": "uint256"
        },
        {
          "internalType": "uint256",
          "name": "yfiPrice",
          "type": "uint256"
        },
        {
          "internalType": "uint256",
          "name": "linkPrice",
          "type": "uint256"
        }
      ],
      "stateMutability": "view",
      "type": "function"
    },
    {
      "inputs": [],
      "name": "getCryptoDataCount",
      "outputs": [
        {
          "internalType": "uint256",
          "name": "",
          "type": "uint256"
        }
      ],
      "stateMutability": "view",
      "type": "function"
    }
  ],
  "bytecode": "0x608060405234801561001057600080fd5b5061047f806100206000396000f3fe608060405234801561001057600080fd5b506004361061004c5760003560e01c8063742410d5146100515780639aea391e1461006f578063bfc5cc301461008b578063da21cdcc146100c1575b600080fd5b6100596100f7565b6040516100669190610290565b60405180910390f35b610089600480360381019061008491906102dc565b610103565b005b6100a560048036038101906100a0919061037e565b6101b8565b6040516100b897969594939291906103ab565b60405180910390f35b6100db60048036038101906100d6919061037e565b61020a565b6040516100ee97969594939291906103ab565b60405180910390f35b60008080549050905090565b60006040518060e001604052808981526020018881526020018781526020018681526020018581526020018481526020018381525090506000819080600181540180825580915050600190039060005260206000209060070201600090919091909150600082015181600001556020820151816001015560408201518160020155606082015181600301556080820151816004015560a0820151816005015560c0820151816006015550505050505050505050565b600081815481106101c857600080fd5b90600052602060002090600702016000915090508060000154908060010154908060020154908060030154908060040154908060050154908060060154905087565b6000806000806000806000806000898154811061022a5761022961041a565b5b906000526020600020906007020190508060000154816001015482600201548360030154846004015485600501548660060154975097509750975097509750975050919395979092949650565b6000819050919050565b61028a81610277565b82525050565b60006020820190506102a56000830184610281565b92915050565b600080fd5b6102b981610277565b81146102c457600080fd5b50565b6000813590506102d6816102b0565b92915050565b600080600080600080600060e0888a0312156102fb576102fa6102ab565b5b60006103098a828b016102c7565b975050602061031a8a828b016102c7565b965050604061032b8a828b016102c7565b955050606061033c8a828b016102c7565b945050608061034d8a828b016102c7565b93505060a061035e8a828b016102c7565b92505060c061036f8a828b016102c7565b91505092959891949750929550565b600060208284031215610394576103936102ab565b5b60006103a2848285016102c7565b91505092915050565b600060e0820190506103c0600083018a610281565b6103cd6020830189610281565b6103da6040830188610281565b6103e76060830187610281565b6103f46080830186610281565b61040160a0830185610281565b61040e60c0830184610281565b98975050505050505050565b7f4e487b7100000000000000000000000000000000000000000000000000000000600052603260045260246000fdfea26469706673582212209e320b625f494b5c114865fc1225e993a6cd5ac9cebb64c40ae0fed4b5006eec64736f6c63430008090033",
  "linkReferences": {},
  "deployedLinkReferences": {}
}