{
  "_format": "hh-sol-artifact-1",
  "contractName": "OracleData",
  "sourceName": "contracts/OracleData.sol",
  "abi": [
    {
      "anonymous": false,
      "inputs": [
        {
          "indexed": true,
          "internalType": "address",
          "name": "previousOwner",
          "type": "address"
        },
        {
          "indexed": true,
          "internalType": "address",
          "name": "newOwner",
          "type": "address"
        }
      ],
      "name": "OwnershipTransferred",
      "type": "event"
    },
    {
      "inputs": [
        {
          "internalType": "string",
          "name": "",
          "type": "string"
        }
      ],
      "name": "mean",
      "outputs": [
        {
          "internalType": "uint256",
          "name": "",
          "type": "uint256"
        }
      ],
      "stateMutability": "view",
      "type": "function"
    },
    {
      "inputs": [],
      "name": "owner",
      "outputs": [
        {
          "internalType": "address",
          "name": "",
          "type": "address"
        }
      ],
      "stateMutability": "view",
      "type": "function"
    },
    {
      "inputs": [],
      "name": "renounceOwnership",
      "outputs": [],
      "stateMutability": "nonpayable",
      "type": "function"
    },
    {
      "inputs": [
        {
          "internalType": "string",
          "name": "oracle",
          "type": "string"
        },
        {
          "internalType": "uint256",
          "name": "meanData",
          "type": "uint256"
        }
      ],
      "name": "storeOracleData",
      "outputs": [],
      "stateMutability": "nonpayable",
      "type": "function"
    },
    {
      "inputs": [
        {
          "internalType": "address",
          "name": "newOwner",
          "type": "address"
        }
      ],
      "name": "transferOwnership",
      "outputs": [],
      "stateMutability": "nonpayable",
      "type": "function"
    }
  ],
  "bytecode": "0x608060405234801561001057600080fd5b5061002d61002261003260201b60201c565b61003a60201b60201c565b6100fe565b600033905090565b60008060009054906101000a900473ffffffffffffffffffffffffffffffffffffffff169050816000806101000a81548173ffffffffffffffffffffffffffffffffffffffff021916908373ffffffffffffffffffffffffffffffffffffffff1602179055508173ffffffffffffffffffffffffffffffffffffffff168173ffffffffffffffffffffffffffffffffffffffff167f8be0079c531659141344cd1fd0a4f28419497f9722a3daafe3b4186f6b6457e060405160405180910390a35050565b6108368061010d6000396000f3fe608060405234801561001057600080fd5b50600436106100575760003560e01c8063271c4b451461005c578063715018a6146100785780638da5cb5b14610082578063ae7f4f48146100a0578063f2fde38b146100d0575b600080fd5b610076600480360381019061007191906104dc565b6100ec565b005b610080610113565b005b61008a610127565b6040516100979190610579565b60405180910390f35b6100ba60048036038101906100b59190610594565b610150565b6040516100c791906105ec565b60405180910390f35b6100ea60048036038101906100e59190610633565b61017e565b005b806001836040516100fd91906106da565b9081526020016040518091039020819055505050565b61011b610202565b6101256000610280565b565b60008060009054906101000a900473ffffffffffffffffffffffffffffffffffffffff16905090565b6001818051602081018201805184825260208301602085012081835280955050505050506000915090505481565b610186610202565b600073ffffffffffffffffffffffffffffffffffffffff168173ffffffffffffffffffffffffffffffffffffffff1614156101f6576040517f08c379a00000000000000000000000000000000000000000000000000000000081526004016101ed90610774565b60405180910390fd5b6101ff81610280565b50565b61020a610344565b73ffffffffffffffffffffffffffffffffffffffff16610228610127565b73ffffffffffffffffffffffffffffffffffffffff161461027e576040517f08c379a0000000000000000000000000000000000000000000000000000000008152600401610275906107e0565b60405180910390fd5b565b60008060009054906101000a900473ffffffffffffffffffffffffffffffffffffffff169050816000806101000a81548173ffffffffffffffffffffffffffffffffffffffff021916908373ffffffffffffffffffffffffffffffffffffffff1602179055508173ffffffffffffffffffffffffffffffffffffffff168173ffffffffffffffffffffffffffffffffffffffff167f8be0079c531659141344cd1fd0a4f28419497f9722a3daafe3b4186f6b6457e060405160405180910390a35050565b600033905090565b6000604051905090565b600080fd5b600080fd5b600080fd5b600080fd5b6000601f19601f8301169050919050565b7f4e487b7100000000000000000000000000000000000000000000000000000000600052604160045260246000fd5b6103b38261036a565b810181811067ffffffffffffffff821117156103d2576103d161037b565b5b80604052505050565b60006103e561034c565b90506103f182826103aa565b919050565b600067ffffffffffffffff8211156104115761041061037b565b5b61041a8261036a565b9050602081019050919050565b82818337600083830152505050565b6000610449610444846103f6565b6103db565b90508281526020810184848401111561046557610464610365565b5b610470848285610427565b509392505050565b600082601f83011261048d5761048c610360565b5b813561049d848260208601610436565b91505092915050565b6000819050919050565b6104b9816104a6565b81146104c457600080fd5b50565b6000813590506104d6816104b0565b92915050565b600080604083850312156104f3576104f2610356565b5b600083013567ffffffffffffffff8111156105115761051061035b565b5b61051d85828601610478565b925050602061052e858286016104c7565b9150509250929050565b600073ffffffffffffffffffffffffffffffffffffffff82169050919050565b600061056382610538565b9050919050565b61057381610558565b82525050565b600060208201905061058e600083018461056a565b92915050565b6000602082840312156105aa576105a9610356565b5b600082013567ffffffffffffffff8111156105c8576105c761035b565b5b6105d484828501610478565b91505092915050565b6105e6816104a6565b82525050565b600060208201905061060160008301846105dd565b92915050565b61061081610558565b811461061b57600080fd5b50565b60008135905061062d81610607565b92915050565b60006020828403121561064957610648610356565b5b60006106578482850161061e565b91505092915050565b600081519050919050565b600081905092915050565b60005b83811015610694578082015181840152602081019050610679565b838111156106a3576000848401525b50505050565b60006106b482610660565b6106be818561066b565b93506106ce818560208601610676565b80840191505092915050565b60006106e682846106a9565b915081905092915050565b600082825260208201905092915050565b7f4f776e61626c653a206e6577206f776e657220697320746865207a65726f206160008201527f6464726573730000000000000000000000000000000000000000000000000000602082015250565b600061075e6026836106f1565b915061076982610702565b604082019050919050565b6000602082019050818103600083015261078d81610751565b9050919050565b7f4f776e61626c653a2063616c6c6572206973206e6f7420746865206f776e6572600082015250565b60006107ca6020836106f1565b91506107d582610794565b602082019050919050565b600060208201905081810360008301526107f9816107bd565b905091905056fea26469706673582212208e20676ecebc5152528533bd1193344aa4b76e31a2c4d6226596eda958e5ac5764736f6c63430008090033",
  "linkReferences": {},
  "deployedLinkReferences": {}
}