{"contracts/OracleData.sol":{"OracleData":{"abi":[{"inputs":[{"internalType":"uint256","name":"eth","type":"uint256"},{"internalType":"uint256","name":"btc","type":"uint256"},{"internalType":"uint256","name":"matic","type":"uint256"},{"internalType":"uint256","name":"op","type":"uint256"},{"internalType":"uint256","name":"sol","type":"uint256"},{"internalType":"uint256","name":"yfi","type":"uint256"},{"internalType":"uint256","name":"link","type":"uint256"}],"name":"addCryptoData","outputs":[],"stateMutability":"nonpayable","type":"function"},{"inputs":[{"internalType":"uint256","name":"","type":"uint256"}],"name":"cryptoDataArray","outputs":[{"internalType":"uint256","name":"ethPrice","type":"uint256"},{"internalType":"uint256","name":"btcPrice","type":"uint256"},{"internalType":"uint256","name":"maticPrice","type":"uint256"},{"internalType":"uint256","name":"opPrice","type":"uint256"},{"internalType":"uint256","name":"solPrice","type":"uint256"},{"internalType":"uint256","name":"yfiPrice","type":"uint256"},{"internalType":"uint256","name":"linkPrice","type":"uint256"}],"stateMutability":"view","type":"function"},{"inputs":[{"internalType":"uint256","name":"index","type":"uint256"}],"name":"getCryptoData","outputs":[{"internalType":"uint256","name":"ethPrice","type":"uint256"},{"internalType":"uint256","name":"btcPrice","type":"uint256"},{"internalType":"uint256","name":"maticPrice","type":"uint256"},{"internalType":"uint256","name":"opPrice","type":"uint256"},{"internalType":"uint256","name":"solPrice","type":"uint256"},{"internalType":"uint256","name":"yfiPrice","type":"uint256"},{"internalType":"uint256","name":"linkPrice","type":"uint256"}],"stateMutability":"view","type":"function"},{"inputs":[],"name":"getCryptoDataCount","outputs":[{"internalType":"uint256","name":"","type":"uint256"}],"stateMutability":"view","type":"function"}],"evm":{"bytecode":{"linkReferences":{},"object":"608060405234801561001057600080fd5b5061047f806100206000396000f3fe608060405234801561001057600080fd5b506004361061004c5760003560e01c8063742410d5146100515780639aea391e1461006f578063bfc5cc301461008b578063da21cdcc146100c1575b600080fd5b6100596100f7565b6040516100669190610290565b60405180910390f35b610089600480360381019061008491906102dc565b610103565b005b6100a560048036038101906100a0919061037e565b6101b8565b6040516100b897969594939291906103ab565b60405180910390f35b6100db60048036038101906100d6919061037e565b61020a565b6040516100ee97969594939291906103ab565b60405180910390f35b60008080549050905090565b60006040518060e001604052808981526020018881526020018781526020018681526020018581526020018481526020018381525090506000819080600181540180825580915050600190039060005260206000209060070201600090919091909150600082015181600001556020820151816001015560408201518160020155606082015181600301556080820151816004015560a0820151816005015560c0820151816006015550505050505050505050565b600081815481106101c857600080fd5b90600052602060002090600702016000915090508060000154908060010154908060020154908060030154908060040154908060050154908060060154905087565b6000806000806000806000806000898154811061022a5761022961041a565b5b906000526020600020906007020190508060000154816001015482600201548360030154846004015485600501548660060154975097509750975097509750975050919395979092949650565b6000819050919050565b61028a81610277565b82525050565b60006020820190506102a56000830184610281565b92915050565b600080fd5b6102b981610277565b81146102c457600080fd5b50565b6000813590506102d6816102b0565b92915050565b600080600080600080600060e0888a0312156102fb576102fa6102ab565b5b60006103098a828b016102c7565b975050602061031a8a828b016102c7565b965050604061032b8a828b016102c7565b955050606061033c8a828b016102c7565b945050608061034d8a828b016102c7565b93505060a061035e8a828b016102c7565b92505060c061036f8a828b016102c7565b91505092959891949750929550565b600060208284031215610394576103936102ab565b5b60006103a2848285016102c7565b91505092915050565b600060e0820190506103c0600083018a610281565b6103cd6020830189610281565b6103da6040830188610281565b6103e76060830187610281565b6103f46080830186610281565b61040160a0830185610281565b61040e60c0830184610281565b98975050505050505050565b7f4e487b7100000000000000000000000000000000000000000000000000000000600052603260045260246000fdfea26469706673582212209e320b625f494b5c114865fc1225e993a6cd5ac9cebb64c40ae0fed4b5006eec64736f6c63430008090033","opcodes":"PUSH1 0x80 PUSH1 0x40 MSTORE CALLVALUE DUP1 ISZERO PUSH2 0x10 JUMPI PUSH1 0x0 DUP1 REVERT JUMPDEST POP PUSH2 0x47F DUP1 PUSH2 0x20 PUSH1 0x0 CODECOPY PUSH1 0x0 RETURN INVALID PUSH1 0x80 PUSH1 0x40 MSTORE CALLVALUE DUP1 ISZERO PUSH2 0x10 JUMPI PUSH1 0x0 DUP1 REVERT JUMPDEST POP PUSH1 0x4 CALLDATASIZE LT PUSH2 0x4C JUMPI PUSH1 0x0 CALLDATALOAD PUSH1 0xE0 SHR DUP1 PUSH4 0x742410D5 EQ PUSH2 0x51 JUMPI DUP1 PUSH4 0x9AEA391E EQ PUSH2 0x6F JUMPI DUP1 PUSH4 0xBFC5CC30 EQ PUSH2 0x8B JUMPI DUP1 PUSH4 0xDA21CDCC EQ PUSH2 0xC1 JUMPI JUMPDEST PUSH1 0x0 DUP1 REVERT JUMPDEST PUSH2 0x59 PUSH2 0xF7 JUMP JUMPDEST PUSH1 0x40 MLOAD PUSH2 0x66 SWAP2 SWAP1 PUSH2 0x290 JUMP JUMPDEST PUSH1 0x40 MLOAD DUP1 SWAP2 SUB SWAP1 RETURN JUMPDEST PUSH2 0x89 PUSH1 0x4 DUP1 CALLDATASIZE SUB DUP2 ADD SWAP1 PUSH2 0x84 SWAP2 SWAP1 PUSH2 0x2DC JUMP JUMPDEST PUSH2 0x103 JUMP JUMPDEST STOP JUMPDEST PUSH2 0xA5 PUSH1 0x4 DUP1 CALLDATASIZE SUB DUP2 ADD SWAP1 PUSH2 0xA0 SWAP2 SWAP1 PUSH2 0x37E JUMP JUMPDEST PUSH2 0x1B8 JUMP JUMPDEST PUSH1 0x40 MLOAD PUSH2 0xB8 SWAP8 SWAP7 SWAP6 SWAP5 SWAP4 SWAP3 SWAP2 SWAP1 PUSH2 0x3AB JUMP JUMPDEST PUSH1 0x40 MLOAD DUP1 SWAP2 SUB SWAP1 RETURN JUMPDEST PUSH2 0xDB PUSH1 0x4 DUP1 CALLDATASIZE SUB DUP2 ADD SWAP1 PUSH2 0xD6 SWAP2 SWAP1 PUSH2 0x37E JUMP JUMPDEST PUSH2 0x20A JUMP JUMPDEST PUSH1 0x40 MLOAD PUSH2 0xEE SWAP8 SWAP7 SWAP6 SWAP5 SWAP4 SWAP3 SWAP2 SWAP1 PUSH2 0x3AB JUMP JUMPDEST PUSH1 0x40 MLOAD DUP1 SWAP2 SUB SWAP1 RETURN JUMPDEST PUSH1 0x0 DUP1 DUP1 SLOAD SWAP1 POP SWAP1 POP SWAP1 JUMP JUMPDEST PUSH1 0x0 PUSH1 0x40 MLOAD DUP1 PUSH1 0xE0 ADD PUSH1 0x40 MSTORE DUP1 DUP10 DUP2 MSTORE PUSH1 0x20 ADD DUP9 DUP2 MSTORE PUSH1 0x20 ADD DUP8 DUP2 MSTORE PUSH1 0x20 ADD DUP7 DUP2 MSTORE PUSH1 0x20 ADD DUP6 DUP2 MSTORE PUSH1 0x20 ADD DUP5 DUP2 MSTORE PUSH1 0x20 ADD DUP4 DUP2 MSTORE POP SWAP1 POP PUSH1 0x0 DUP2 SWAP1 DUP1 PUSH1 0x1 DUP2 SLOAD ADD DUP1 DUP3 SSTORE DUP1 SWAP2 POP POP PUSH1 0x1 SWAP1 SUB SWAP1 PUSH1 0x0 MSTORE PUSH1 0x20 PUSH1 0x0 KECCAK256 SWAP1 PUSH1 0x7 MUL ADD PUSH1 0x0 SWAP1 SWAP2 SWAP1 SWAP2 SWAP1 SWAP2 POP PUSH1 0x0 DUP3 ADD MLOAD DUP2 PUSH1 0x0 ADD SSTORE PUSH1 0x20 DUP3 ADD MLOAD DUP2 PUSH1 0x1 ADD SSTORE PUSH1 0x40 DUP3 ADD MLOAD DUP2 PUSH1 0x2 ADD SSTORE PUSH1 0x60 DUP3 ADD MLOAD DUP2 PUSH1 0x3 ADD SSTORE PUSH1 0x80 DUP3 ADD MLOAD DUP2 PUSH1 0x4 ADD SSTORE PUSH1 0xA0 DUP3 ADD MLOAD DUP2 PUSH1 0x5 ADD SSTORE PUSH1 0xC0 DUP3 ADD MLOAD DUP2 PUSH1 0x6 ADD SSTORE POP POP POP POP POP POP POP POP POP POP JUMP JUMPDEST PUSH1 0x0 DUP2 DUP2 SLOAD DUP2 LT PUSH2 0x1C8 JUMPI PUSH1 0x0 DUP1 REVERT JUMPDEST SWAP1 PUSH1 0x0 MSTORE PUSH1 0x20 PUSH1 0x0 KECCAK256 SWAP1 PUSH1 0x7 MUL ADD PUSH1 0x0 SWAP2 POP SWAP1 POP DUP1 PUSH1 0x0 ADD SLOAD SWAP1 DUP1 PUSH1 0x1 ADD SLOAD SWAP1 DUP1 PUSH1 0x2 ADD SLOAD SWAP1 DUP1 PUSH1 0x3 ADD SLOAD SWAP1 DUP1 PUSH1 0x4 ADD SLOAD SWAP1 DUP1 PUSH1 0x5 ADD SLOAD SWAP1 DUP1 PUSH1 0x6 ADD SLOAD SWAP1 POP DUP8 JUMP JUMPDEST PUSH1 0x0 DUP1 PUSH1 0x0 DUP1 PUSH1 0x0 DUP1 PUSH1 0x0 DUP1 PUSH1 0x0 DUP10 DUP2 SLOAD DUP2 LT PUSH2 0x22A JUMPI PUSH2 0x229 PUSH2 0x41A JUMP JUMPDEST JUMPDEST SWAP1 PUSH1 0x0 MSTORE PUSH1 0x20 PUSH1 0x0 KECCAK256 SWAP1 PUSH1 0x7 MUL ADD SWAP1 POP DUP1 PUSH1 0x0 ADD SLOAD DUP2 PUSH1 0x1 ADD SLOAD DUP3 PUSH1 0x2 ADD SLOAD DUP4 PUSH1 0x3 ADD SLOAD DUP5 PUSH1 0x4 ADD SLOAD DUP6 PUSH1 0x5 ADD SLOAD DUP7 PUSH1 0x6 ADD SLOAD SWAP8 POP SWAP8 POP SWAP8 POP SWAP8 POP SWAP8 POP SWAP8 POP SWAP8 POP POP SWAP2 SWAP4 SWAP6 SWAP8 SWAP1 SWAP3 SWAP5 SWAP7 POP JUMP JUMPDEST PUSH1 0x0 DUP2 SWAP1 POP SWAP2 SWAP1 POP JUMP JUMPDEST PUSH2 0x28A DUP2 PUSH2 0x277 JUMP JUMPDEST DUP3 MSTORE POP POP JUMP JUMPDEST PUSH1 0x0 PUSH1 0x20 DUP3 ADD SWAP1 POP PUSH2 0x2A5 PUSH1 0x0 DUP4 ADD DUP5 PUSH2 0x281 JUMP JUMPDEST SWAP3 SWAP2 POP POP JUMP JUMPDEST PUSH1 0x0 DUP1 REVERT JUMPDEST PUSH2 0x2B9 DUP2 PUSH2 0x277 JUMP JUMPDEST DUP2 EQ PUSH2 0x2C4 JUMPI PUSH1 0x0 DUP1 REVERT JUMPDEST POP JUMP JUMPDEST PUSH1 0x0 DUP2 CALLDATALOAD SWAP1 POP PUSH2 0x2D6 DUP2 PUSH2 0x2B0 JUMP JUMPDEST SWAP3 SWAP2 POP POP JUMP JUMPDEST PUSH1 0x0 DUP1 PUSH1 0x0 DUP1 PUSH1 0x0 DUP1 PUSH1 0x0 PUSH1 0xE0 DUP9 DUP11 SUB SLT ISZERO PUSH2 0x2FB JUMPI PUSH2 0x2FA PUSH2 0x2AB JUMP JUMPDEST JUMPDEST PUSH1 0x0 PUSH2 0x309 DUP11 DUP3 DUP12 ADD PUSH2 0x2C7 JUMP JUMPDEST SWAP8 POP POP PUSH1 0x20 PUSH2 0x31A DUP11 DUP3 DUP12 ADD PUSH2 0x2C7 JUMP JUMPDEST SWAP7 POP POP PUSH1 0x40 PUSH2 0x32B DUP11 DUP3 DUP12 ADD PUSH2 0x2C7 JUMP JUMPDEST SWAP6 POP POP PUSH1 0x60 PUSH2 0x33C DUP11 DUP3 DUP12 ADD PUSH2 0x2C7 JUMP JUMPDEST SWAP5 POP POP PUSH1 0x80 PUSH2 0x34D DUP11 DUP3 DUP12 ADD PUSH2 0x2C7 JUMP JUMPDEST SWAP4 POP POP PUSH1 0xA0 PUSH2 0x35E DUP11 DUP3 DUP12 ADD PUSH2 0x2C7 JUMP JUMPDEST SWAP3 POP POP PUSH1 0xC0 PUSH2 0x36F DUP11 DUP3 DUP12 ADD PUSH2 0x2C7 JUMP JUMPDEST SWAP2 POP POP SWAP3 SWAP6 SWAP9 SWAP2 SWAP5 SWAP8 POP SWAP3 SWAP6 POP JUMP JUMPDEST PUSH1 0x0 PUSH1 0x20 DUP3 DUP5 SUB SLT ISZERO PUSH2 0x394 JUMPI PUSH2 0x393 PUSH2 0x2AB JUMP JUMPDEST JUMPDEST PUSH1 0x0 PUSH2 0x3A2 DUP5 DUP3 DUP6 ADD PUSH2 0x2C7 JUMP JUMPDEST SWAP2 POP POP SWAP3 SWAP2 POP POP JUMP JUMPDEST PUSH1 0x0 PUSH1 0xE0 DUP3 ADD SWAP1 POP PUSH2 0x3C0 PUSH1 0x0 DUP4 ADD DUP11 PUSH2 0x281 JUMP JUMPDEST PUSH2 0x3CD PUSH1 0x20 DUP4 ADD DUP10 PUSH2 0x281 JUMP JUMPDEST PUSH2 0x3DA PUSH1 0x40 DUP4 ADD DUP9 PUSH2 0x281 JUMP JUMPDEST PUSH2 0x3E7 PUSH1 0x60 DUP4 ADD DUP8 PUSH2 0x281 JUMP JUMPDEST PUSH2 0x3F4 PUSH1 0x80 DUP4 ADD DUP7 PUSH2 0x281 JUMP JUMPDEST PUSH2 0x401 PUSH1 0xA0 DUP4 ADD DUP6 PUSH2 0x281 JUMP JUMPDEST PUSH2 0x40E PUSH1 0xC0 DUP4 ADD DUP5 PUSH2 0x281 JUMP JUMPDEST SWAP9 SWAP8 POP POP POP POP POP POP POP POP JUMP JUMPDEST PUSH32 0x4E487B7100000000000000000000000000000000000000000000000000000000 PUSH1 0x0 MSTORE PUSH1 0x32 PUSH1 0x4 MSTORE PUSH1 0x24 PUSH1 0x0 REVERT INVALID LOG2 PUSH5 0x6970667358 0x22 SLT KECCAK256 SWAP15 ORIGIN SIGNEXTEND PUSH3 0x5F494B 0x5C GT BASEFEE PUSH6 0xFC1225E993A6 0xCD GAS 0xC9 0xCE 0xBB PUSH5 0xC40AE0FED4 0xB5 STOP PUSH15 0xEC64736F6C63430008090033000000 "},"methodIdentifiers":{"addCryptoData(uint256,uint256,uint256,uint256,uint256,uint256,uint256)":"9aea391e","cryptoDataArray(uint256)":"bfc5cc30","getCryptoData(uint256)":"da21cdcc","getCryptoDataCount()":"742410d5"}}}}}